:020000040800F2
:10000000E8060020050100080B1800083516000856
:1000100009180008AD010008512700080000000081
:10002000000000000000000000000000E9180008C7
:10003000AF010008000000000D180008EB180008D0
:100040001F0100081F0100081F0100081F01000810
:100050001F0100081F010008B10100081F0100086E
:100060001F0100081F0100081F0100081F010008F0
:100070001F0100081F0100081F0100081F010008E0
:100080001F0100081F0100081F0100081F010008D0
:100090001F0100081F0100081F0100081F010008C0
:1000A0001F0100081F0100081F0100081F010008B0
:1000B000491900081F0100081F0100081F0100085E
:1000C0001F0100081F0100081F0100081F01000890
:1000D0001F0100081F0100081F0100081F01000880
:1000E0001F0100081F0100081F010008DFF810D0E1
:1000F00000F04AF800480047B92A0008AFF3008032
:10010000E80600200648804706480047FEE7FEE76D
:10011000FEE7FEE7FEE7FEE7FEE7FEE7FEE7FEE7B7
:1001200047190008ED000008202A04DB203A21FAD4
:1001300002F00021704721FA02F3D040C2F1200200
:100140009140084319467047D2B201E000F8012BF4
:10015000491EFBD270470022F6E710B513460A4647
:1001600004461946FFF7F0FF204610BD30B504469F
:100170000020034600E05B1C934203D2E05CCD5CB0
:10018000401BF8D030BD0000064C074D06E0E0688B
:1001900040F0010394E8070098471034AC42F6D3CE
:1001A000FFF7A8FF102E0008302E0008FEE770476A
:1001B000012000F051B9000006490020C86106483E
:1001C000016941F004010161016941F040010161EF
:1001D00070470000C802002000200240064A0021AB
:1001E000D16106490A6942F002020A614861086960
:1001F00040F0400008617047C80200200020024023
:10020000044B0022DA61044A136943F001031361CD
:1002100001807047C80200200020024014480022DC
:10022000C168CB06134904D5CA6942F00202CA610B
:100230001022C3685B0705D5CB6943F00103CB618E
:1002400042F00402C369DB0707D0CB6943F0040323
:10025000CB61C16921F00101C161A2F58071013951
:1002600001D0C2607047C16921F00101C1617047CE
:1002700000200240C802002070B5054600F0F2F9E7
:100280000646114C09E0681C07D025B100F0EAF9D8
:10029000801BA84201D9032070BDE068C007F2D1DD
:1002A000E068800601D52020E060E068C00605D443
:1002B000E069C00702D1E068400703D5FFF7AEFF51
:1002C000012070BD002070BD0020024070B50446C2
:1002D00000F0C8F90546601C02D0044800780444C8
:1002E00000F0C0F9401BA042FAD370BD18000020F6
:1002F0002DE9F047054626480F460126017E0129D3
:100300000FD00121814601762868DFF888804CF201
:100310005034022808D0A2462046FFF7ADFFA8B10E
:1003200031E00220BDE8F0872046FFF7A5FF08BBBB
:100330000120FFF741FF2046FFF79EFFD8F810107D
:10034000064621F00401C8F810101CE04FF0FF3001
:100350003860AC6811E02046FFF740FF5046FFF7D9
:100360008BFFD8F81010060021F00201C8F8101019
:1003700001D03C6007E004F58064D5E9020100EBA0
:100380008120A042E7D8002189F818103046C9E73B
:10039000C8020020002002400348016941F08001AA
:1003A0000161002070470000002002402DE9F05F4D
:1003B00007461C4888460024017E15461E46012932
:1003C00009D00121814601764CF2503A5046FFF7A0
:1003D00053FF18B122E00220BDE8F09F012F02D0A8
:1003E000022F00D00427D346DFF83CA02201284684
:1003F0003146FFF799FE81B208EB4400FFF700FF9A
:100400005846FFF739FFDAF8102022F00102CAF847
:10041000102018B9641CE4B2BC42E7D3002289F86A
:100420001820D9E7C8020020002002400649002019
:100430000A69120607D5054A4A60054A4A600969F1
:10044000090600D5012070470020024023016745BE
:10045000AB89EFCD70470000044910B50A6802422D
:1004600002D00860FFF7F6FF10BD00001404014041
:100470002DE9F84FDFF8B891002409F1040A0AF1D8
:10048000040B23460F270BF1040EC9E00125A540FC
:100490002A40AA427DD1674ED1F804C0ACEB0608D1
:1004A000B44532D014DCBCF1030F3AD009DCBCF106
:1004B000000F2AD0BCF1010F1CD0BCF1020F31D1CA
:1004C0001DE0BCF1110F17D0BCF1120F2AD119E0B9
:1004D000B8F5881F19D006DCB8F5803F15D0B8F5FF
:1004E000801F1FD111E0B8F5001F0ED0B8F5041F12
:1004F00018D10AE0CB6815E0CB681B1D12E0CB6871
:1005000008330FE0CB680C330CE08B682BB1012B68
:100510004FF0080303D0456104E0042302E00561C5
:1005200000E00023FF2A01D8064601E000F104069E
:100530004FEA840501D9A5F12005D6F8008007FA15
:1005400005FC28EA0C0803FA05F548EA0508C6F890
:1005500000804D68ED0062D5374DAE6946F001066A
:10056000AE61AD6924F0030605F001050095334D39
:1005700006EB050CDCF80850A607360F07FA06F85C
:1005800025EA0805DFF8B880404503D14FF00008A0
:1005900017E044E0DFF8AC80404502D14FF001089D
:1005A0000FE0DFF8A480404502D14FF0020808E0D8
:1005B000DFF89880404502D14FF0030801E04FF08A
:1005C000040808FA06F848EA0508CCF808804D68DF
:1005D000D9F80060ED034D4601D5164300E096437F
:1005E0002E604D68DAF80060AD03554601D516431C
:1005F00000E096432E604D68DBF80060ED025D463A
:1006000001D5164300E096432E604D68DEF8006089
:10061000AD02754601D5164300E096432E60641C7A
:100620000D682A46E5407FF431AFBDE8F88F000041
:1006300000040140000011100010024000000140C1
:1006400000080140000C014000100140001401406E
:100650008068084000D0012070470AB101617047EE
:100660000904FBE70148806870470000180000207B
:1006700002488168027811448160704718000020A8
:10068000074810B5016841F010010160032000F037
:1006900075F8002000F006F800F024F8002010BDE6
:1006A0000020024070B50D4D04464FF47A71287851
:1006B000B1FBF0F00A490968B1FBF0F000F04FFC23
:1006C00048B9102C07D200222146501E00F036F8FF
:1006D00000206C6070BD012070BD0000180000207B
:1006E000240000200C4808B5816941F001018161B6
:1006F000816901F001010091C16941F08051C1613E
:10070000C06900F0805000900448416821F0E06129
:1007100041F00071416008BD00100240000001403E
:10072000002809DB00F01F020121914040098000F0
:1007300000F1E020C0F8001170470000F0B40E4B4B
:100740001B680C46C3F30223C3F10705042D00D92F
:100750000425191D072901D2002300E0DB1E012614
:1007600006FA05F1491E214099409E40761E16402A
:100770003143F0BC01F0EDBF0CED00E0064900F0A4
:10078000070208684FF6FF03184040EA0220034AB8
:1007900010430860704700000CED00E00000FA050F
:1007A0002DE9F0470F46050061D0434E306800F058
:1007B0000700B84209D2306820F0070038433060A3
:1007C000306800F00700B84251D128683B4C8107DF
:1007D00012D5400703D5606840F4E0606060287877
:1007E000000703D5606840F4605060606068A968E5
:1007F00020F0F000084360602878C00728D06868BF
:10080000012810D02168022810D0890700292EDA8B
:10081000616821F0030101436160FFF723FF804617
:1008200041F288390DE021688903EFE78901EDE79E
:10083000FFF718FFA0EB0801494502D90320BDE8E6
:10084000F0876068696800F00C00B0EB810FEFD1B1
:10085000306800F00700B8420BD9306820F007007C
:1008600038433060306800F00700B84201D0012002
:10087000E5E72878400705D56068E96820F4E0607E
:10088000084360602878000706D56068296920F46D
:10089000605040EAC100606000F018F86168084AE2
:1008A000C1F30311515CC84006490860064800685E
:1008B000FFF7F8FE0020C2E70020024000100240CF
:1008C000002E0008240000201C00002012A185B08A
:1008D0000FC98DE80F0014A0144A006804905168F5
:1008E000134801F00C03042B10D0082B0ED1C1F3D8
:1008F0008343C9031DF803000AD5516804AAC1F354
:100900004041515C0A4A5043B0FBF1F005B07047DA
:1009100008494843FAE700000203040506070809EE
:100920000A0B0C0D0E0F1010010200000010024007
:1009300000127A0000093D002DE9F84F040070D044
:100940002078C04DC00749D06868C0F381000128F5
:1009500007D06868C0F38100022809D16868C00325
:1009600006D52868800339D560680028E7D035E0CF
:100970006068B0F5803F0BD010B1B0F5A02F11D05A
:10098000286820F480302860286820F4802002E065
:10099000286840F480302860606890B1FFF762FEFC
:1009A00006460AE0286840F480202860F0E700BF8F
:1009B000FFF758FE801B642873D828688003F7D59A
:1009C0000CE0FFF74FFE064605E000BFFFF74AFECA
:1009D000801B6428F0D828688003F7D420789A4ECA
:1009E00080074FF001094FF0000839D5686810F012
:1009F0000C0F07D06868C0F38100022809D168682D
:100A0000C00306D42868800714D52069012808D1BE
:100A100010E02069B0B1C6F80090FFF723FE07464A
:100A200005E00AE1FFF71EFEC01B0228C4D82868B3
:100A30008007F7D52868616920F0F80040EAC10016
:100A400028600DE0C6F80080FFF70CFE074604E0C2
:100A5000FFF708FEC01B022823D828688007F7D4B8
:100A6000207800072CD57948A169D9B1C0F8009049
:100A7000FFF7F8FD074604E0FFF7F4FDC01B02286E
:100A80000FD8686A8007F7D571484FF4FA510068AB
:100A9000B0FBF1F0009000BF0098411E0091FAD227
:100AA0000EE080E0C0F80080FFF7DCFD074604E0C0
:100AB000FFF7D8FDC01B022875D8686A8007F7D4F5
:100AC0002078400760D5E8690027C00008D4E869AD
:100AD00040F08050E861E869012700F08050009004
:100AE0005C480168C90513D40168834641F48071EC
:100AF0000160FFF7B7FD824606E000BFFFF7B2FDD9
:100B0000A0EB0A0064284ED8DBF80000C005F5D53C
:100B1000E06801280AD008B1052813D0286A20F01F
:100B200001002862286A20F0040002E0286A40F0F0
:100B300001002862E06841F2883B98B1FFF792FD1E
:100B400082460BE0286A40F004002862EEE700BF0E
:100B5000FFF788FDA0EB0A0159455AD8286A80079B
:100B6000F6D50CE0FFF77EFD824605E0FFF77AFD43
:100B7000A0EB0A0159454CD8286A8007F6D41FB16A
:100B8000E86920F08050E861E06988B36968C1F3E2
:100B90008101022944D00228C6F8608004D0FFF702
:100BA00061FD044638E034E0FFF75CFD074604E0F1
:100BB000FFF758FDC01B02282BD828688001F7D406
:100BC000206AB0F5803F05D16868A16820F4003044
:100BD00008436860D4E908010843696821F4741186
:100BE00008436860C6F86090FFF73CFD044606E0E5
:100BF00025E000BFFFF736FD001B022809D8286852
:100C00008001F7D51BE000BFFFF72CFD001B022879
:100C100002D90320BDE8F88F28688001F4D40EE0E3
:100C20000128F7D06868226A00F48031914204D12B
:100C3000616A00F47010884201D00120EAE70020C8
:100C4000E8E70000001002400000424280044242F7
:100C5000240000200070004070B5040009D0606AD4
:100C6000002540B125616561A56294F8510040B14D
:100C70000CE0012070BD6068B0F5827FF4D0E561C2
:100C8000F2E784F85050204600F040F8022084F843
:100C900051002068016821F040010160A08821898D
:100CA00000F4827001F404410843A18901F4006159
:100CB0000843217C01F002010843217D01F001017C
:100CC0000843218B01F400710843217F01F03801B2
:100CD000084394F8201001F080010843218D01F4AD
:100CE0000051084321680860A069042101EA10400E
:100CF000216848602068C16921F40061C1616565AF
:100D0000012084F85100002070BD000030B585B08E
:100D100000240094019402940394006814498842CA
:100D200023D11448816941F480518161816901F4C2
:100D300080510491816941F00401816180690E4D07
:100D400000F004000490A0200090022001900320F5
:100D5000039069462846FFF78BFB4020CDE900044D
:100D6000694628460294FFF783FB05B030BD0000BA
:100D70000030014000100240000801402DE9F84F0A
:100D8000044690F8500000270A9E1D4692468B4666
:100D90004FF0010901280ED0012084F85000FFF720
:100DA00061FC804694F85100616801280CD0B1F5CF
:100DB000827F07D102E00220BDE8F88FA16809B95F
:100DC000042801D00227C2E0BBF1000F27D0BAF1FE
:100DD000000F24D01DB394F85100042802D0052040
:100DE00084F8510000206065C4F838A0E587A58725
:100DF000C4F830B0E586A586206460642068016888
:100E0000490603D4016841F040010160E068B0F593
:100E1000006F606805D0E8B3012D46D07FE0012760
:100E200095E008B1012D39D1206B21680088C86098
:100E3000206B801C2063E08E401EE0862EE0206840
:100E4000816889070FD5E18E69B1B9F1010F0AD127
:100E5000216B0988C160206B801C2063E08E401EDE
:100E6000E0864FF0000920688168C9070CD0E18F47
:100E700051B1C068A16B0880A06B801CA063E08F9B
:100E8000401EE0874FF00109FFF7ECFBA0EB0800E4
:100E9000B04200E009E001D3701C50D1E08E002880
:100EA000CDD1E08F0028CAD13FE0206B21680078C7
:100EB0000873206B401C2063E08E401EE0862EE00D
:100EC0002068816889070FD5E18E69B1B9F1010FFA
:100ED0000AD1216B09780173206B401C2063E08EDE
:100EE000401EE0864FF0000920688168C9070CD0D9
:100EF000E18F51B1C068A16B0870A06B401CA0636A
:100F0000E08F401EE0874FF00109FFF7ABFBA0EB3D
:100F10000800B04202D3701C01D010E07EB1E08E18
:100F20000028CDD1E08F0028CAD142463146204664
:100F300000F06DFC28B101272020606507E0032741
:100F400005E0A06818B92068C16880680090012099
:100F500084F85100002084F8500038462CE710B582
:100F6000401EB0F1807F01D3012010BD4FF0E0247E
:100F700060610F21601701F0ECFB0020A0610720E9
:100F80002061002010BD70477047000070B590F8D8
:100F90003C20012A26D0012480F83C40022280F81F
:100FA0003D2003685A689D6822F070060A68324343
:100FB0005A600D4B02689A4208D0B2F1804F05D0BA
:100FC0000A4B9A4202D00A4B9A4204D1496825F052
:100FD00080031943916080F83D40002180F83C1067
:100FE000084670BD022070BD002C01400004004086
:100FF0000008004010B5040003D094F83D0010B183
:1010000007E0012010BD002084F83C00204600F0DD
:101010001FF8022084F83D00211D206800F09AFC92
:10102000012084F8460084F83E0084F83F0084F8EC
:10103000400084F8410084F8420084F8430084F8BA
:10104000440084F8450084F83D00002010BD0000F5
:1010500008B50068B0F1804F12D10A48C16941F06B
:101060000101C161C069002200F00100009002216D
:101070001C20FFF763FBBDE808401C20FFF750BBB6
:1010800008BD00000010024070B5044690F83C0016
:10109000012817D0012584F83C50022084F83D0037
:1010A0002068826822F0770222F47F42826008681A
:1010B000502830D00DDC20284DD005DC98B3102806
:1010C0003BD148E0022070BD302844D0402834D1C4
:1010D00039E0602828D0702806D0B0F5805F2CD089
:1010E000B0F5005F29D10AE0CB68D1E90121206881
:1010F00000F073FC2068816841F0770109E0CB685B
:10110000D1E90121206800F068FC2068816841F481
:101110008041816011E0CA684968206800F012FDD2
:101120005021206807E016E0CA684968206800F08E
:101130001AFD6021206800F05AFC84F83D50002020
:1011400084F83C0070BDCA684968206800F0FAFC69
:1011500040212068EFE7226801461046EBE7704720
:1011600070B50446006801694FF00005C94389075E
:1011700015D4C168C943890711D4E91E0161012052
:101180002077206880698007204602D0FFF7E7FFBC
:1011900004E000F0C9F8204600F058F925772068EF
:1011A0000169C943490717D4C168C943490713D422
:1011B0006FF004010161022020772068806910F43B
:1011C000407F204602D0FFF7CAFF04E000F0ACF8F1
:1011D000204600F03BF9257720680169C9430907DB
:1011E00016D4C168C943090712D46FF00801016120
:1011F000042020772068C0698007204602D0FFF7CE
:10120000AEFF04E000F090F8204600F01FF92577CB
:1012100020680169C943C90617D4C168C943C90612
:1012200013D46FF010010161082020772068C06995
:1012300010F4407F204602D0FFF791FF04E000F059
:1012400073F8204600F002F9257720680169C94348
:10125000C90708D1C168C943C90704D1891E016102
:10126000204600F0A9F920680169C943090609D49C
:10127000C168C943090605D46FF0800101612046A9
:10128000FFF781FE20680169C943490609D4C16896
:10129000C943490605D46FF040010161204600F0C2
:1012A0008CF920680169C94389060BD4C168C94318
:1012B000890607D46FF0200101612046BDE8704027
:1012C000FFF762BE70BD000000B585B0002100913F
:1012D0000191029103910068B0F1804F1BD10F483A
:1012E000816941F0040181618069694600F0040070
:1012F00004904FF4004000900220019003900848B1
:10130000FFF7B6F80748416821F4407141F0E06109
:1013100041F48071416005B000BD00000010024042
:101320000008014000000140704770B5044690F885
:101330003C000D4601280AD0012084F83C0042B14F
:10134000042A18D0082A2AD00C2A4DD139E00220CC
:1013500070BD206800F054FB2068816941F00801ED
:1013600081612068816921F00401816120688169BF
:101370002A69114311E0206800F06AFB2068816946
:1013800041F4006181612068816921F4806181619B
:10139000206881692A6941EA0221816124E020688C
:1013A00000F082FB2068C16941F00801C16120683A
:1013B000C16921F00401C1612068C1692A69114332
:1013C00011E0206800F09CFB2068C16941F40061D5
:1013D000C1612068C16921F48061C1612068C1696F
:1013E0002A6941EA0221C161002084F83C0070BDF5
:1013F00010B5040003D094F83D0010B107E00120BF
:1014000010BD002084F83C00204600F01EF80220A9
:1014100084F83D00211D206800F09CFA012084F82A
:10142000460084F83E0084F83F0084F8400084F8C9
:10143000410084F8420084F8430084F8440084F8B2
:10144000450084F83D00002010BD70477047000043
:1014500010B50446022249B1042912D008291CD033
:1014600094F84100012823D0012010BD94F83E00DB
:101470000128F9D184F83E202068C26842F00202B7
:1014800009E094F83F000128EED184F83F2020685D
:10149000C26842F00402C2600EE094F840000128E5
:1014A000E2D184F840202068C26842F00802F2E7E6
:1014B00084F841200C2922D00122206800F080FA13
:1014C00011492068884203D1426C42F400424264D0
:1014D0002068884208D0B0F1804F05D00B4988427F
:1014E00002D00B49884204D1816801F00701062926
:1014F00003D0016841F001010160002010BD2068A7
:10150000C26842F01002C6E7002C0140000400400F
:101510000008004030B5044600680D0006D0042DD8
:1015200008D0082D35D00C2D08D136E0C16821F047
:10153000020102E0C16821F00401C16000222946D5
:10154000206800F03DFA1B4B41F2111120688A100F
:10155000984209D1036A0B4206D1036A134203D1B0
:10156000436C23F4004343642068036A0B4206D1B2
:10157000016A114203D1016821F0010101600120DB
:101580007DB1042D10D0082D11D084F84100002029
:1015900030BDC16821F00801CFE7C16821F010011A
:1015A000CBE784F83E00F2E784F83F00EFE784F8E9
:1015B0004000ECE7002C01407047704710B586B042
:1015C0000446FEF733FF0120CDE9024001900020E0
:1015D000009004A96846FEF78BFEFEF7DDFE06B01C
:1015E00010BD10B50023521C05E030F813405B1C01
:1015F00021F8024B9BB2B3EB520FF6D310BD2DE98D
:10160000F04116460D460746FEF710FF0024761CF3
:1016100009E02A8807EB440100230120FEF7C6FEFB
:10162000641CA4B2AD1CB4EB560FF2D3BDE8F0417C
:10163000FEF7B2BEFEE700002DE9F04F85B00026B0
:1016400036480096019602960396816941F0100192
:101650008161816901F010010491816941F0040107
:101660008161816901F004010491816941F00801FF
:1016700081618069DFF8A89000F008004FF4005401
:101680000490002221464846FEF7E7FFDFF894A0C9
:1016900041F61E77002239465046FEF7DEFFDFF89E
:1016A00088B04FF45048002241465846FEF7D5FF17
:1016B000009401240225694648460194CDE902457B
:1016C000FEF7D6FE19486946CDE90040504602941F
:1016D000FEF7CEFECDE9007469465046CDE90245DD
:1016E000FEF7C6FE40F60340CDE9000669460294C7
:1016F0005846FEF7BDFECDE9008469465846CDE95F
:101700000245FEF7B5FE002201210620FFF716F87C
:101710000620FFF705F805B0BDE8F08F0010024085
:101720000010014000080140000C014000002110A1
:101730000E4810B50C4901604FF4827141600021E0
:101740008160C1604FF400720161C0E90512C1619E
:101750000162416281620A21C162FFF77DFA0028BD
:1017600001D072B6FEE710BD003001402800002015
:1017700010B58EB000240794089409940A940B9431
:101780001C2168460C94FEF7E6FC1E484FF0804191
:101790000160A021C0E9011440F2E731C0E903145F
:1017A00080218161FFF726FC08B172B6FEE74FF495
:1017B0008050079007A91348FFF766FC08B172B67E
:1017C000FEE71048FFF714FE08B172B6FEE70B946F
:1017D0000BA90C480C94FFF7D9FB08B172B6FEE7D1
:1017E0006020CDE900040294002269460548049473
:1017F000FFF79BFD08B172B6FEE70248FFF764FDF4
:101800000EB010BD80000020FEE7FEE7704738B53F
:101810000B46009204460022802100F009F80028BF
:1018200004D0606D40F020006065032038BD0000EA
:101830002DE9F8431E46914688460446089DFEF76A
:1018400011FF401B351AFEF70DFF074625480068BB
:10185000C0F3CB30684338E0701C37D0FEF702FF8E
:10186000C01BA84203D215B1009860B32CE02068D9
:10187000416821F0E00141606068B0F5827F0BD1E2
:10188000A068B0F5004F02D0B0F5806F04D1206899
:10189000016821F040010160A06AB0F5005F09D144
:1018A0002068016821F4005101602068016841F45A
:1018B00000510160012084F85100002084F850009C
:1018C0000320BDE8F8830025401E00902068816851
:1018D00038EA010004D000214945BDD10020F0E7DD
:1018E0000121F9E7240000207047FEF7C1BE30B5A2
:1018F0008FB028216846FEF72EFC14210AA8FEF7B7
:101900002AFC012002250490009510200590002457
:10191000CDE9075468460994FFF70EF808B172B68E
:10192000FEE70F20CDE90A054FF48060CDE90C40B9
:1019300000210AA80E94FEF733FF002801D072B6EA
:10194000FEE70FB030BD70470148FFF709BC00004B
:1019500080000020F0B50268164B174C174D4FF071
:101960008047984205D0B84203D0A04201D0A84297
:1019700003D122F070064A683243984205D0B8423B
:1019800003D0A04201D0A84203D122F44074CA6817
:1019900022434C6922F08002224302608A68C262BC
:1019A0000A688262984201D109690163012141619B
:1019B000F0BD0000002C0140000400400008004081
:1019C00010B501F01F030121046A99408C430462A1
:1019D000016A9A401143016210BD10B5846842EA61
:1019E000032224F47F440A432243826010BD8268AC
:1019F00022F070020A4342F0070181607047000044
:101A000030B5026A22F001020262026A4368846908
:101A100024F073050C682C4322F002058A682A43DF
:101A20000A4DA8420BD122F00805CA6823F440737E
:101A30002A434D6922F004021D438B692B43436006
:101A4000846149684163026230BD0000002C01409E
:101A500030B5026A22F010020262026A43688469A9
:101A60000D6824F4E64444EA05248D6822F020023F
:101A700042EA05120B4DA8420ED1CD6822F0800239
:101A800042EA05124D6923F4406343EA85038D69F8
:101A900022F0400243EA8503436084614968816320
:101AA000026230BD002C014030B5026A22F480721F
:101AB0000262036A4268C46923F4007324F0730568
:101AC0000C682C438D6843EA05230C4DA8420ED1C7
:101AD000CD6823F4006343EA05234D6922F44052A4
:101AE00042EA05128D6923F4806342EA05124260DE
:101AF000C4614968C163036230BD0000002C01402D
:101B000030B5026A22F480520262046A4268C369F4
:101B10000D6823F4E64343EA05238D6824F400545A
:101B200044EA0534064DA84204D14D6922F48042AE
:101B300042EA85124260C36149680164046230BDB3
:101B4000002C014010B5036A046A24F00104046209
:101B5000846924F0F00444EA021423F00A020A43E0
:101B60008461026210BD10B5036A23F010030362A2
:101B70008369046A23F4704343EA023224F0A00329
:101B800043EA01118261016210BD10B5142000F01A
:101B900059F8800705D10321BDE81040142000F05A
:101BA00088B810BD7CB50446002529460D2000F0FC
:101BB00017F9932020702020607001A82346009020
:101BC000022219460C2000F080F8010009D1225CA5
:101BD000401C5540C0B20428F9D3205CA84200D074
:101BE000022108467CBD70B50C46054600F02AF877
:101BF00020EA04012846BDE8704000F0F1B810B5B5
:101C000000F053F88D212A2000F0EAF83E212B2025
:101C100000F0E6F81E212D2000F0E2F800212C2033
:101C200000F0DEF87021262000F0DAF840211520BF
:101C300000F0D6F83D21112000F0D2F8BDE81040A8
:101C4000FFF7A3BF70B50C4D0446002210212846B3
:101C5000FEF703FD7E2000EA440040F0800000F023
:101C6000D9F8002000F0D6F80446012210212846B9
:101C7000FEF7F3FC204670BD000801407CB50C4621
:101C8000054607210D2000F0ABF8257001A823467A
:101C90000090012219460C2000F017F818B9BDF881
:101CA0000410102900D002207CBD0F21012000F07B
:101CB00097B870B50C460546FFF7C4FF40EA04012B
:101CC0002846BDE8704000F08BB82DE9FF5F002783
:101CD0000226DDF838A015468B468146B8460C280A
:101CE00005D0B9F10E0F05D11227102001E077279A
:101CF0003020804647F08001022000F071F88021FA
:101D00000420FFF770FF80210A20FFF7D2FF002197
:101D1000012000F065F8002406E01BF804100920FB
:101D200000F05EF8641CA4B2AC42F6D34946012030
:101D300000F056F8B9F10C0F03D180210D20FFF708
:101D4000B8FF4FF4FA650420FFF77CFF6D1E2D04E9
:101D500004462D0C04D0E00702D114EA080FF2D09B
:101D600080210D20FFF73FFF35B10620FFF76AFF06
:101D700010F01B0F04D0022604B03046BDE8F09FDF
:101D800000263C40E00700D00126B9F10C0FF3D14A
:101D90000A20FFF757FF04460C20FFF753FF10F00F
:101DA00007004FEAC40104D008390844AAF800002B
:101DB00001E0AAF8001024B1102C04D91024002549
:101DC00003E00124FBE7002506E00920FFF73AFFC6
:101DD000039948556D1CADB2A542F6D3CCE700007F
:101DE00070B50B4D0E460446002210212846FEF722
:101DF00034FC7E2000EA440000F00CF8304600F08D
:101E000009F82846BDE8704001221021FEF725BCE4
:101E1000000801403EB50B4C8DF804002068816835
:101E20008907FCD50A200090012302AA01A90548D0
:101E3000FEF7A4FF206881680906FCD49DF808001D
:101E40003EBD0000280000207CB500240D46009413
:101E5000694626200194FFF711FF00282CD168461F
:101E6000FFF7A0FE002827D1684600F07DFFA0F50F
:101E70007F414FF47A76FF391FD02C70002101206A
:101E800000F040FD15A000F08DFD0021012000F0C4
:101E900039FD16A000F086FD3046FEF717FA00F077
:101EA0002DFD0021084600F02DFD14A000F07AFD64
:101EB0000021012000F026FD7CBD684600F020FFD7
:101EC0002C700021012000F01DFD04A000F06AFD2F
:101ED0000021012000F016FD0CA0DBE720202020CF
:101EE000202020202020202020202000616C7265EE
:101EF000616479206578697374000000444F4F5223
:101F00002050415353574F5244000000306B0000A3
:101F10002DE9F05F0D46DDE90A4B80469A461746EB
:101F200000210120DDF8309000F0ECFC002606E0F6
:101F300019F80610012000F041FD761CF6B2AE4201
:101F4000F6D3B8F1200F73D0B8F12A0F70D0B8F1E2
:101F5000230F6DD02026B8F1440F18D0217807F850
:101F6000018022782A2109F802102078401CC0B292
:101F70002070A84200D328462070C820FEF7A6F99A
:101F80002078A84254D100202070014613E0207828
:101F90000028F5D0401EC0B220703E54217809F8C8
:101FA0000160EAE71AF800203B5C9A4201D1491C23
:101FB000C9B2401CC0B2A842F4D3A9421DD1062127
:101FC0008BF80010002004E03E5409F80060401C2B
:101FD000C0B2A842F8D300F091FC0021084600F0FE
:101FE00091FC14A000F0DEFC0021012000F08AFC2E
:101FF000BDE8F05F13A000F0D5BC0021012000F087
:1020000081FC16A000F0CEFC4FF4FA60FEF75EF9FA
:102010000021012000F076FC14A000F0C3FC002099
:1020200004E03E5409F80060401CC0B2A842F8D356
:10203000BDE8F09F41444D494E204D454E553A2054
:1020400000000000412E61646420422E64656C2013
:10205000432E6368616E67650000000077726F6EE3
:10206000672070617373776F7264210020202020D5
:1020700020202020202020202020200070B5044691
:1020800000780D4600283AD100F0A8FE00F036FC9A
:102090000021084600F036FC19A000F083FC002166
:1020A000012000F02FFC19A000F07CFC4FF47A76A0
:1020B0003046FEF70BF90021012000F023FC16A0AA
:1020C00000F070FC0021012000F01CFC15A000F0C5
:1020D00069FC3046FEF7FAF80120207000202870D5
:1020E00000F00CFC0021084600F00CFC0EA000F0F3
:1020F00059FCBDE870400021012000F003BC70BD18
:102100004241434B5550204441544100776174741F
:10211000696E672E2E2E00002020202020202020F7
:10212000202000004F4B0000444F4F52205041539D
:1021300053574F52440000002DE9F05F0D46DDE992
:102140000A4B80469A46174600210120DDF8309060
:1021500000F0D8FB002606E019F80610012000F078
:102160002DFC761CF6B2AE42F6D3B8F1200F6CD03F
:10217000B8F12A0F69D0B8F1230F66D02026B8F144
:10218000440F18D0217807F8018022782A2109F815
:1021900002102078401CC0B22070A84200D328460C
:1021A0002070C820FEF792F82078A8424DD1002078
:1021B0002070014613E020780028F5D0401EC0B200
:1021C00020703E54217809F80160EAE71AF80020EF
:1021D0003B5C9A4201D1491CC9B2401CC0B2A84222
:1021E000F4D3A94216D102218BF80010002004E09C
:1021F0003E5409F80060401CC0B2A842F8D300F079
:102200007DFB0021084600F07DFBBDE8F05F10A0DB
:1022100000F0C8BB0021012000F074FB10A000F00A
:10222000C1FB4FF4FA60FEF751F80021012000F0E5
:1022300069FB0FA000F0B6FB002004E03E5409F853
:102240000060401CC0B2A842F8D3BDE8F09F000077
:102250004E45572050415353574F52443A200000A7
:1022600077726F6E672070617373776F726421008D
:10227000202020202020202020202020202020007E
:102280007CB500240D460094694626200194FFF792
:10229000F5FC00283DD16846FFF784FC002838D1C2
:1022A000684600F061FDA0F57F414FF47A76FF3972
:1022B00010D0684600F03AFD2C700021012000F09B
:1022C00021FB14A000F06EFB0021012000F01AFB9E
:1022D00014A00CE02C700021012000F013FB0DA0D5
:1022E00000F060FB0021012000F00CFB0EA000F0CC
:1022F00059FB3046FDF7EAFF00F000FB00210846DD
:1023000000F000FB0AA000F04DFB0021012000F0CE
:10231000F9FA7CBD20202020202020202020202011
:1023200020202000306B0000696E76616C696400CB
:10233000444F4F522050415353574F5244000000D6
:102340002DE9FF5F0E46DDE90E4580461746002168
:10235000012000F0D7FA2978012000F02FFB6978DE
:10236000012000F02BFBA978012000F027FBE97881
:10237000012000F023FBDFF88C914FF0000B99F85F
:102380000400032827D0B8F1200F3CD0B8F12A0F61
:1023900039D0B8F1230F36D04FF0200AB8F1440FEE
:1023A00033D021782A2007F80180217868542078DA
:1023B000401CC0B22070B04200D330462070C8200C
:1023C000FDF784FF2078B0421DD100215A4684F8E1
:1023D00000B008462EE00121084600F093FA4AA01A
:1023E00000F0E0FA41F28830FDF770FF0121084665
:1023F00000F088FA47A000F0D5FA0021012000F093
:1024000081FA89F804B0BDE8FF9F20780028D9D070
:10241000401EC0B2207007F800A0207805F800A088
:10242000CDE7039B3C5C1B5CA34201D1491CC9B2B4
:10243000401CC0B2B042F4D34FF42F78B1423ED129
:1024400089F8042000213648FFF702F8344C19209F
:1024500021684863DFF8CCB04FF4005900224946A8
:102460005846FEF7FAF80021012000F04BFA2EA0A2
:1024700000F098FA4046FDF729FF0020514603E09E
:1024800039542954401CC0B2B042F9D30021012074
:1024900000F038FA27A000F085FA01224946584694
:1024A000FEF7DBF821687D2048634046FDF70EFF0C
:1024B00004B00021BDE8F05F1948FFF72BB899F888
:1024C00004100120491C89F80410002100F01AFAB8
:1024D0001BA000F067FA4046FDF7F8FE00205146C9
:1024E00003E039542954401CC0B2B042F9D3002152
:1024F000012000F007FA04B015A0BDE8F05F00F07D
:1025000051BA00000000002057617474696E6720A2
:102510003330730020202020202020202020200085
:1025200080000020001001405375636365737321C0
:10253000000000002020202020202020000000009B
:1025400077726F6E672070617373776F72642100AA
:10255000202020202020202020202020202020009B
:1025600070B50C4641280FD0422817D000254328CB
:1025700028D044283CD1072008701570BDE8704071
:102580004FF47A70FDF7A2BE0420087000F0B6F98F
:102590000021084600F0B6F916A008E005200870F2
:1025A00000F0ACF90021084600F0ACF915A000F0ED
:1025B000F9F90021012000F0A5F9BDE8704015A04F
:1025C00000F0F0B900F09AF90021084600F09AF9FD
:1025D00014A000F0E7F90021012000F093F9012098
:1025E0002070154850F8051F4160816000F8055CB7
:1025F00070BD0000414444204E4557205246494496
:102600003A20000044454C45544520524649443A3E
:102610002000000077617474696E672063617264E2
:102620002E2E2E0043555252454E205041535357A3
:102630004F52443A20000000000000202DE9F047EE
:102640000D46DDE9084A80469946164600210120DC
:1026500000F058F9002705E0F15D012000F0AEF927
:102660007F1CFFB2AF42F7D3B8F1200F5AD0B8F1B8
:102670002A0F57D0B8F1230F54D02027B8F1440FB8
:1026800017D0217806F801802078401CC0B2207055
:10269000A84200D328462070C820FDF717FE2078F6
:1026A000A8423FD14FF0000884F8008041464046E0
:1026B0000EE020780028F2D0401EC0B220703754BF
:1026C000EAE7335C491C09F80030401CC9B2C0B2CB
:1026D000A842F6D3A94225D10021012000F012F929
:1026E00011A000F05FF94FF4FA60FDF7EFFD002153
:1026F000012000F007F90FA000F054F9002002E0DB
:102700003754401CC0B2A842FAD38AF8008000F0C7
:10271000F5F80021084600F0F5F8BDE8F04708A0FC
:1027200000F040B9BDE8F0875375636365737321AA
:102730000000000020202020202020200000000099
:10274000444F4F522050415353574F5244000000C2
:10275000FEE70907090E002804DB00F1E02080F8FD
:102760000014704700F00F0000F1E02080F8141D05
:10277000704702E008C8121F08C1002AFAD170474A
:102780007047002001E001C1121F002AFBD17047F1
:102790002DE9F047574E2024002202213046FDF754
:1027A0005CFF0A20FDF792FD534D01212846FDF7FD
:1027B0004FFF4FF480684FF4006978B1022128463A
:1027C000FDF746FF60B141462846FDF741FF48B19D
:1027D00049462846FDF73CFF30B106E0312404E0CD
:1027E000322402E0332400E0412401220221304659
:1027F000FDF733FF002204213046FDF72EFF0A20AB
:10280000FDF764FD01212846FDF722FF78B1022182
:102810002846FDF71DFF60B141462846FDF718FF29
:1028200048B149462846FDF713FF30B106E034248D
:1028300004E0352402E0362400E042240122042191
:102840003046FDF70AFF002208213046FDF705FF5C
:102850000A20FDF73BFD01212846FDF7F9FE78B17E
:1028600002212846FDF7F4FE60B141462846FDF7F7
:10287000EFFE48B149462846FDF7EAFE30B106E0D2
:10288000372404E0382402E0392400E04324012204
:1028900008213046FDF7E1FE4FF48057002239460B
:1028A0003046FDF7DAFE0A20FDF710FD012128462B
:1028B000FDF7CEFE78B102212846FDF7C9FE60B1D2
:1028C00041462846FDF7C4FE48B149462846FDF773
:1028D000BFFE30B106E02A2404E0302402E02324C5
:1028E00000E04424012239463046FDF7B6FE20467A
:1028F000BDE8F08700080140000C014001210020E4
:1029000000F05CB830B1012806D1C031C9B2002056
:1029100000F054B88031F9E77047000070B54FF40B
:10292000FA70FDF7D3FC1D4C00224FF48071204655
:10293000FDF793FE012251022046FDF78EFE002294
:1029400021152046FDF789FE0022E1142046FDF7FF
:1029500084FE134C00224FF480412046FDF77DFE9B
:102960000122D50329462046FDF777FE002229469D
:102970002046FDF772FE2821002000F01FF80C21F0
:10298000002000F01BF80621002000F017F8BDE839
:1029900070400121002000F011B800000008014043
:1029A000000C014010B5044603E0012000F006F8D9
:1029B000641C21780029F8D110BD00002DE9F05FDA
:1029C00006460C460220FDF781FC394D4FF480414C
:1029D0000EB1012200E000222846FDF73EFEDFF89E
:1029E000D4B020064FF4006701D5012200E0002298
:1029F00039465846FDF731FE60064FF4806801D530
:102A0000012200E0002241465846FDF726FEA006BE
:102A10004FF4007901D5012200E0002249465846D2
:102A2000FDF71BFEE0064FF4807A01D5012200E09D
:102A3000002251465846FDF710FE0122D6033146CA
:102A40002846FDF70AFE002231462846FDF705FE1E
:102A5000200701D5012200E0002239465846FDF743
:102A6000FCFD600701D5012200E0002241465846E6
:102A7000FDF7F3FDA00701D5012200E00022494641
:102A80005846FDF7EAFDE00701D0012200E00022F0
:102A900051465846FDF7E1FD012231462846FDF733
:102AA000DCFD31462846BDE8F05F0022FDF7D5BDCC
:102AB000000C0140000801400EB500F071F9FDF76F
:102AC000DFFDFEF714FFFEF7B7FDFEF731FEFEF760
:102AD0004FFEFFF794F8FFF721FFDFF8D4B14FF472
:102AE000005A012251465846FDF7B7FD00224FF427
:102AF00080517048FDF7B1FD4FF47A70FDF7E6FBA9
:102B0000FFF7FCFE6CA0FFF74DFF00210120FFF74F
:102B1000F9FEDFF8B4810026A8F10D076B4D07F12F
:102B200002093C46FFF734FE60702A2802D02328B1
:102B30000CD01BE0A078C8B1A6702670FFF7DEFEAF
:102B400000210846FFF7DEFE5BA009E00320A0702D
:102B50002670FFF7D3FE00210846FFF7D3FE5CA0E6
:102B6000FFF720FF00210120FFF7CCFEA078082806
:102B70005ED2DFE800F004685E7480868C93CDE955
:102B80000078514AAB1D121F04216078FFF7D8FB73
:102B90004D492620091DFFF771F8002848D14A4801
:102BA000001DFEF7FFFF00287DD14748001D00F003
:102BB000DBF8A0F57F41FF3975D000214948FEF7C9
:102BC00047FC484819210068416300225146584695
:102BD000FDF743FD01210846FFF794FE42A0FFF7F1
:102BE000E1FE4FF4FA70FDF771FB01210846FFF793
:102BF00089FE40A0FFF7D6FE012251465846FDF758
:102C00002CFD4FF47A70FDF761FB36487D2100689A
:102C100041634FF42F70FDF759FB00213148FEF757
:102C200079FCD4F80500C4F80900C4F80D0026703A
:102C300039E0CDE90079244AAB1D121F04216078E8
:102C4000FFF7FCFC2FE0CDE900791F4ACDF80880A2
:102C5000AB1D121F04216078FFF76EFA23E0CDE967
:102C60000079194ACDF80880AB1C121F0421607846
:102C7000FFF74EF917E0144914480B39FFF7E4F851
:102C800011E0114911480B39FFF7FAFA0BE00E4A2F
:102C900060780A3A511EFFF763FC04E00A490B39D9
:102CA000481CFFF7EBF93220FDF710FB3AE7000074
:102CB00000100140000C0140444F4F52205041533E
:102CC00053574F52440000000D000020C800002060
:102CD00041444D494E2050415353574F52443A209E
:102CE00000000000800000202D2D4D4F2043554155
:102CF0002D2D00002020202020202020202000003A
:102D000009490A88642A01D30020704702EB820235
:102D10000A440368C2F80A30007990730888401C9E
:102D20000880012070470000C800002010B500F0A6
:102D30001BF8A0F57F41FF3912D000EB8001094854
:102D40000A180188491E89B2018001EB81010844FB
:102D5000D0F80A10C2F80A10807B9073012010BDD1
:102D6000002010BDC800002070B5064600240B4DA1
:102D70000BE000BF04EB84004119052230460A3104
:102D8000FDF7F4F938B1641CA4B22888A042F1D848
:102D90004FF6FF7070BD204670BD0000C8000020D7
:102DA00010B54FF4FF7209490948FEF71AFC0748AD
:102DB0000188642909D30021018006A10968C0F8AF
:102DC000021004A10968C0F8061010BDC800002058
:102DD00000FC0108313233340000000010B5064C0D
:102DE0002046FEF7EBFB2046BDE810404FF4FF7293
:102DF0000249FEF704BC000000FC0108C8000020E6
:102E0000000000000000000001020304060708099A
:102E1000302E000800000020280000007227000863
:102E2000582E000828000020C00600008227000855
:102E30000000000000202020202020202020202032
:102E40002000000000000000010000001000000051
:082E5000000000000024F40062
:04000005080000ED02
:00000001FF
